:100000000C94C52F0C94F62F0C94F62F0C94F62F0D
:100010000C94F62F0C94A9BC0C94F62F0C94F62F8C
:100020000C9440C00C94F62F0C949C9D0C94F62FCD
:100030000C94F62F0D9448380C94F62F0C94F62F50
:100040000C94F62F0C942AA70C94F62F0C94F62FF0
:100050000C94F62F0C94F62F0C94EDC40D94F686A8
:100060000C94F62F0C94CA970C94F62F0C94F62F40
:100070000C94F62F0C94F62F0C94F62F0C94F62F6C
:100080000C94F62F0C94F62F0C94F62F0C94F62F5C
:100090000C9486970C94F62F0C94F62F0C94F62F54
:1000A0000C94F62F0C94F62F0C94F62F0C94F62F3C
:1000B0000C94F62F0C94F62F0C94F62F0C94F62F2C
:1000C0000C94F62F0C94F62F0C94F62F0C94DADD8A
:1000D0000C94F62F0C94F62F0C94F62F0C94F62F0C
:1000E0000C94F62FB18EBB8E7D8E658E3D8EE48F87
:1000F000DD8E408FC88F4F9C539C599C629C7B9C8B
:10010000989CD59C0C9D47D65DD670D67DD687D65B
:10011000B5D6D6D6DCD6EAD6EDD6EFD6F9D60AD7FE
:100120001BD75301A3015B01C1017501390197017F
:100130008B0167013701AB01BD014B013F01A101FB
:100140009301CB0131015101A7012F019F017101E1
:100150003D018501CB0147018101AD017D0189018F
:1001600043017B01B501C5014501690135017301F9
:100170009D01B9012D015F01C5017F0141016F01A1
:10018000084AD73B3BCE016E84BCBFFDC12F3D6CFE
:1001900074319ABD56833DDA3D00C77F11BED9E464
:1001A000BB4C3E916BAAAABE000000803F05A84C44
:1001B000CDB2D44EB93836A9020C50B99186880810
:1001C0003CA6AAAA2ABE000000803F07634236B7B9
:1001D0009BD8A71A39685618AEBAAB558C1D3CB7D8
:1001E000CC5763BD6DEDFD753EF6177231BF000053
:1001F00000803F08000000BE922449123EABAAAA2C
:100200002ABECDCCCC4C3E00000080BEABAAAAAA30
:100210003E00000000BF000000803F000000000022
:10022000084178D3BB4387D1133D190E3CC3BD426F
:1002300082AD2B3E68EC8276BED98FE1A93E4C8020
:10024000EFFFBE01C4FF7F3F0000000000000D94DF
:10025000A98A0D948C8A0D940C2C0D94E4840D9431
:100260003C820D942E820D94E38A0D94B7840D94F4
:1002700036400D9406400D94AE2A0D944A820D949A
:1002800019820D9402850D9489840D94A7840D9490
:1002900054820D9438890D942A820D940A890D9404
:1002A000A3290D9432820D94BE3F0D942A230D9400
:1002B0004E8A0D946E8A0D94D23F0D94CC2C0D94E1
:1002C000EE840D9405370D94FF360D9444290D945A
:1002D00028400D94AF840D943A8B0D94D6250D943F
:1002E0000C850D9446820D94C1840D9400400D94AC
:1002F00083890D94008B0D9493840D947F840D94C9
:10030000F8840D9458820D945F8A0D944E820D945A
:1003100005260D9484840D941A400D9483230D9426
:1003200040870D9459290D9423820D94C2870D9412
:100330000C400D9491370D9483370D94CB840D941C
:1003400040820D941D820D94CC3F0D940A370D947C
:1003500038820D94CD980D944D400D945C820D948F
:100360001D8B0D949FA30D94FB360D949D840D94CD
:1003700074880D94D5840D94C68A0D9427820D94AB
:10038000E5880D94E43F0D94AF3C0D9416850D94D3
:10039000D8250D94C6890D9461824E414E494E492F
:1003A0005459494E46CDCCCC3D0AD7233C17B7D142
:1003B0003877CC2B329595E6241FB14F0A000020E8
:1003C000410000C84200401C4620BCBE4CCA1B0E67
:1003D0005AAEC59D746364696E6F70737578585BAF
:1003E0000000407A10F35A00A0724E18090010A5C0
:1003F000D4E80000E87648170000E40B540200003F
:10040000CA9A3B000000E1F50500008096980000C4
:100410000040420F000000A08601000000102700ED
:10042000000000E803000000006400000000000A73
:1004300000000000000100000000002C76D888DCDD
:10044000674F0823DFC1DFAE59E1B1B796E5E3E4BA
:1004500053C63AE651997696E8E6C28426EB898C33
:100460009B62ED407C6FFCEFBC9C9F40F2BAA56F95
:10047000A5F490055A2AF75C936B6CF9676DC11B64
:10048000FCE0E40D47FEF520E6B500D0ED902E032C
:1004900000943577050080841E080000204E0A0075
:1004A0000000C80C333333330F986E12831141EFC1
:1004B0008D2114893BE65516CFFEE6DB18D1844B1F
:1004C000381BF77C1D901DA4BBE424203284725E8F
:1004D000228100C9F124ECA1E53D27256420627941
:1004E000746573207772697474656E20746F20452B
:1004F0004550524F4D20617420616464726573737E
:1005000020307825303478004433202D2052656126
:10051000642F577269746520454550524F4D0A004B
:1005200020436F756E7420583A2000534420707237
:10053000696E74696E67206279746520004E6F740D
:1005400020696E206661726D206D6F64652E0041BA
:1005500063746976652045787472756465723A20B3
:1005600000496E76616C69642065787472756465A3
:1005700072005A204F666673657400556E6B6E6F1D
:10058000776E20636F6D6D616E643A2022004D328C
:10059000303020496E76616C6964206578747275BC
:1005A00064657220007A5F6D61783A20007A5F6D31
:1005B000696E3A2000795F6D61783A2000795F6D4D
:1005C000696E3A2000785F6D61783A20006F70653F
:1005D0006E0054524947474552454400785F6D6963
:1005E0006E3A20005265706F7274696E6720656E96
:1005F0006473746F70207374617475730000534971
:100600004C454E54004E4F524D414C002553204D09
:100610004F44453A2050657263656E7420646F6E76
:10062000653A2025643B207072696E742074696D90
:10063000652072656D61696E696E6720696E206DF7
:10064000696E733A2025640A00456E642066696C01
:1006500065206C69737400426567696E2066696C19
:1006600065206C6973740025643A2025640A000AC9
:1006700050494E44412074656D70657261747572A5
:10068000653A20252E3166205A20736869667420E9
:10069000286D6D293A20252E3366000A5374657043
:1006A0003A2025642F360A000A537465703A2025D3
:1006B000642F362028736B6970706564290A50496D
:1006C0004E44412074656D70657261747572653A4F
:1006D000202564205A20736869667420286D6D296E
:1006E0003A300A000A5A45524F3A20252E33660AFC
:1006F0000073746172742074656D706572617475D5
:1007000072653A20252E31660A0025642020252EA8
:10071000326600255320583A20252E356620593A56
:1007200020252E3566205A3A20252E35660A00539C
:100730006C6565702E2E2E004E6F7420696E2066DB
:1007400061726D206D6F64652E0025640045303A3E
:1007500025642052504D0A50524E303A25642052A2
:10076000504D0A002564004175746F0020452F44E8
:100770003D00416476616E6365204B3D004D323231
:10078000302053256900255346696C616D656E7490
:100790002073657474696E67733A2044697361628B
:1007A0006C65640A00255346696C616D656E742042
:1007B00073657474696E67733A0A25532020204D5F
:1007C0003230302044252E32660A0025535265749B
:1007D000726163743A20533D4C656E6774682028DB
:1007E0006D6D2920463A537065656420286D6D2F24
:1007F0006D29205A3A205A4C69667420286D6D295B
:100800000A25532020204D3230372053252E3266C2
:100810002046252E3266205A252E32660A2553524E
:1008200065636F7665723A20533D45787472612036
:100830006C656E67746820286D6D2920463A537088
:1008400065656420286D6D2F6D290A2553202020B1
:100850004D3230382053252E32662046252E326602
:100860000A25534175746F2D526574726163743A31
:1008700020533D3020746F2064697361626C652C75
:10088000203120746F20696E7465727072657420F7
:10089000657874727564652D6F6E6C79206D6F76F6
:1008A0006573206173207265747261637473206F65
:1008B00072207265636F7665726965730A255320CD
:1008C00020204D323039205325640A0025535049E9
:1008D0004420686561746265642073657474696E30
:1008E00067733A0A25532020204D33303420502599
:1008F0002E32662049252E32662044252E32660A85
:100900000025535049442073657474696E67733AC7
:100910000A25532020204D3330312050252E3266B9
:100920002049252E32662044252E32660A002553A2
:1009300053746570732070657220756E69743A0A1D
:10094000255320204D39322058252E326620592536
:100950002E3266205A252E32662045252E32660A12
:1009600025534D6178696D756D20666565647261AA
:10097000746573202D206E6F726D616C20286D6D13
:100980002F73293A0A255320204D32303320582521
:100990002E32662059252E3266205A252E326620A8
:1009A00045252E32660A25534D6178696D756D2097
:1009B000666565647261746573202D20737465616A
:1009C0006C746820286D6D2F73293A0A25532020F6
:1009D0004D3230332058252E32662059252E32666E
:1009E000205A252E32662045252E32660A25534D83
:1009F0006178696D756D20616363656C65726174A2
:100A0000696F6E202D206E6F726D616C20286D6D88
:100A10002F7332293A0A255320204D323031205885
:100A2000256C752059256C75205A256C7520452537
:100A30006C750A25534D6178696D756D206163632E
:100A4000656C65726174696F6E202D2073746561C9
:100A50006C746820286D6D2F7332293A0A25532053
:100A6000204D3230312058256C752059256C752069
:100A70005A256C752045256C750A255341636365BD
:100A80006C65726174696F6E3A20533D6163636592
:100A90006C65726174696F6E2C20543D726574725E
:100AA00061637420616363656C65726174696F6E04
:100AB0000A255320204D3230342053252E32662013
:100AC00054252E32660A2553416476616E6365644F
:100AD000207661726961626C65733A20533D4D699D
:100AE0006E20666565647261746520286D6D2F7374
:100AF000292C20543D4D696E2074726176656C20FE
:100B0000666565647261746520286D6D2F73292C8C
:100B100020423D6D696E696D756D207365676D6509
:100B20006E742074696D6520286D73292C20583DE2
:100B30006D6178696D756D205859206A65726B20FA
:100B4000286D6D2F73292C20205A3D6D6178696DB9
:100B5000756D205A206A65726B20286D6D2F732980
:100B60002C2020453D6D6178696D756D2045206AAA
:100B700065726B20286D6D2F73290A255320204D37
:100B80003230352053252E32662054252E326620F1
:100B900042252E32662058252E32662059252E32C7
:100BA00066205A252E32662045252E32660A2553A8
:100BB000486F6D65206F666673657420286D6D29BA
:100BC0003A0A255320204D3230362058252E3266E1
:100BD0002059252E3266205A252E32660A004625D7
:100BE000642025640A004D4D55203C3D20274625B4
:100BF00064202564270A00504944204175746F74AD
:100C0000756E652066696E6973686564212050752C
:100C10007420746865206C617374204B702C204BB9
:100C20006920616E64204B6420636F6E7374616E23
:100C300074732066726F6D2061626F766520696ED5
:100C4000746F20436F6E66696775726174696F6E49
:100C50002E6800504944204175746F74756E65208C
:100C60006661696C6564212074696D656F757400D7
:100C700020403A00543A0042323A00543A00423A94
:100C800000504944204175746F74756E652066612B
:100C9000696C6564212054656D706572617475724C
:100CA0006520746F6F206869676800204B643A2084
:100CB00000204B693A2000204B703A200020436C02
:100CC00061737369632050494420002054753A20B1
:100CD00000204B753A2000206D61783A2000206D8D
:100CE000696E3A200020643A200020626961733AFC
:100CF000200020453A00205A3A0020593A00204569
:100D00003A00205A3A0020593A00583A00005A3026
:100D1000005A310059300059310058300058310024
:100D2000456E642073746F70732064696167002E70
:100D30000044656C6574696F6E206661696C6564FA
:100D40002C2046696C653A200046696C6520646514
:100D50006C657465643A004E6F7420534420707261
:100D6000696E74696E67005072696E742073617683
:100D70006564005344207072696E742070617573ED
:100D80006564000A002F000A002F2F206163746938
:100D90006F6E3A63616E63656C0043524153485F06
:100DA00043414E43454C0043524153485F524543F3
:100DB0004F5645520043524153485F5245434F56A8
:100DC00045520022283229005400496E76616C6930
:100DD00064205420636F64652E00556E6B6E6F77D0
:100DE0006E204D20636F64653A202573200A006EE3
:100DF0006F2076616C696420636F6D6D616E640055
:100E00002C20002C20002C20006E2F61002C2000B4
:100E10002C20002C20006E2F61002F00503A00572C
:100E200061697420666F722050494E44412074619C
:100E3000726765742074656D706572617475726532
:100E40003A004C414E472053454C20464F524345B3
:100E50004400222831290030303030303030302DFD
:100E6000303030302D303030302D303030302D308B
:100E7000303030303030303030303000205555494F
:100E8000443A0031002045585452554445525F437E
:100E90004F554E543A005072757361206933204D9E
:100EA0004B3300204D414348494E455F545950450E
:100EB0003A00312E3000206261736564206F6E202D
:100EC0004D61726C696E204649524D574152455FE3
:100ED00055524C3A68747470733A2F2F676974686E
:100EE00075622E636F6D2F707275736133642F504E
:100EF000727573612D4669726D776172652050520B
:100F00004F544F434F4C5F56455253494F4E3A0052
:100F10004649524D574152455F4E414D453A5072F8
:100F20007573612D4669726D7761726520004D3170
:100F3000313320530020423A0020453A00543A0011
:100F400020413A0020503A002042403A0020403AE6
:100F500000202F003A00205400202F002042323A77
:100F600000202F0020423A00202F006F6B20543ABF
:100F7000002569206D696E2C20256920736563004A
:100F8000496E76616C6964204D20636F64653A2018
:100F90002573200A00556E6B6E6F776E20472063B5
:100FA0006F64653A202573200A004D6573682062DE
:100FB0006564206C6576656C696E67206E6F742061
:100FC0006163746976652E000A002020000A4D6571
:100FD00061737572656420706F696E74733A000A8C
:100FE0005A20736561726368206865696768743A3E
:100FF00020002C004E756D20582C593A2000206D91
:101000006963726F6E7300457863657373697665A3
:1010100020626564206C6576656C696E6720636F1D
:101020007272656374696F6E3A20004732382057D8
:10103000300050494E44412070726F6265206361F8
:101040006C6962726174696F6E207374617274008E
:10105000473238205730004D3234005345545F43F7
:10106000484F505F005345545F535445505F005301
:1010700045545F574156455F00544D435F0043520E
:101080004153485F005072657373206B6E6F62202E
:10109000746F2070726568656174206E6F7A7A6C07
:1010A0006520616E6420636F6E74696E75652E00D5
:1010B000506C656173652070726573732074686528
:1010C000206B6E6F6220746F20756E6C6F61642090
:1010D00066696C616D656E740052656D6F76652032
:1010E0006F6C642066696C616D656E7420616E64FE
:1010F00020707265737320746865206B6E6F622058
:10110000746F207374617274206C6F6164696E67B0
:10111000206E65772066696C616D656E742E006166
:101120006E6420707265737320746865206B6E6FD7
:101130006200496E736572742066696C616D656EDC
:101140007400436F6C6F72206E6F7420636F7272E5
:101150006563740046696C616D656E74206E6F74B2
:10116000206C6F61646564004368616E676564202C
:10117000636F72726563746C793F004C6F61646970
:101180006E6720636F6C6F72004368616E676520E5
:10119000737563636573732100506C6561736520BB
:1011A0006F70656E2069646C657220616E64207278
:1011B000656D6F76652066696C616D656E74206D16
:1011C000616E75616C6C792E005761732066696C75
:1011D000616D656E7420756E6C6F616420737563EC
:1011E0006365737366756C3F00506C656173652051
:1011F000757067726164652E004E6577206669724E
:101200006D776172652076657273696F6E206176A5
:1012100061696C61626C653A0057616974696E67F7
:1012200020666F722050494E44412070726F626593
:1012300020636F6F6C696E6700437261736820642E
:10124000657465637465642E20526573756D6520E1
:101250007072696E743F00437261736820646574D4
:1012600065637465642E00457874727564657200F8
:1012700043686F6F73652065787472756465723A40
:101280000043686F6F73652066696C616D656E748D
:101290003A004E6F206D6F76652E0057616974209D
:1012A000666F7220757365722E2E2E00536F6D65FA
:1012B0002070726F626C656D20656E636F756E7401
:1012C000657265642C205A2D6C6576656C696E6755
:1012D00020656E666F72636564202E2E2E00537437
:1012E00061626C6520616D6269656E742074656D04
:1012F00070657261747572652032312D323643200B
:101300006973206E65656465642061207269676930
:1013100064207374616E64206973207265717569ED
:101320007265642E00506C656173652072756E2065
:1013300058595A2063616C6962726174696F6E20DA
:1013400066697273742E0073746172740A0061644A
:10135000635F696E69740A001B5B324A1B5B313B39
:1013600031484F726967696E616C205072757361A4
:101370002069331B5B323B334850727573612052D6
:101380006573656172636800466163746F7279208A
:101390005245534554004E6F76203238203230315A
:1013A0003800436F6D70696C65643A2000286E6F79
:1013B0006E652C2064656661756C7420636F6E6663
:1013C000696729004E6F762032382032303138205C
:1013D00031323A34363A32320020332E352E302D27
:1013E000313734390A002055706C6F616420696EA2
:1013F0002070726F677265737300205A3A0020592B
:101400003A0020583A0043524153485F44455445FE
:101410004354454458590043524153485F4445544E
:101420004543544544590043524153485F44455451
:10143000454354454458004D32390050727573612C
:10144000206933204D4B332072656164792E004250
:101450006C61636B6F7574206F6363757272656422
:101460002E205265636F766572207072696E743FCC
:101470000053656C66746573742077696C6C2062C8
:10148000652072756E20746F2063616C6962726191
:1014900074652061636375726174652073656E7332
:1014A0006F726C657373207265686F6D696E672EFD
:1014B000005468657265206973207374696C6C20D0
:1014C00061206E65656420746F206D616B65205AC4
:1014D0002063616C6962726174696F6E2E20506C5A
:1014E0006561736520666F6C6C6F7720746865202A
:1014F0006D616E75616C2C2063686170746572201B
:1015000046697273742073746570732C20736563FD
:1015100074696F6E2043616C6962726174696F6E89
:1015200020666C6F772E005072696E746572206849
:101530006173206E6F74206265656E2063616C69F3
:10154000627261746564207965742E20506C6561E7
:10155000736520666F6C6C6F7720746865206D61B1
:101560006E75616C2C2063686170746572204669C9
:101570007273742073746570732C2073656374695F
:101580006F6E2043616C6962726174696F6E206670
:101590006C6F772E004F6C642073657474696E678E
:1015A0007320666F756E642E2044656661756C7479
:1015B000205049442C204573746570732065746312
:1015C0002E2077696C6C206265207365742E00573D
:1015D00061726E696E673A20626F7468207072691A
:1015E0006E746572207479706520616E64206D6F11
:1015F00074686572626F61726420747970652063CB
:1016000068616E6765642E005761726E696E673A35
:10161000207072696E7465722074797065206368D9
:10162000616E6765642E005761726E696E673A205D
:101630006D6F74686572626F617264207479706531
:10164000206368616E6765642E0045787465726E0C
:10165000616C2053504920666C61736820573235A5
:10166000583230434C206E6F7420726573706F6E09
:1016700064696E672E0043726173684465746563C4
:10168000742044495341424C45440043726173689D
:1016900044657465637420454E41424C45442100C5
:1016A0002020506C616E6E6572427566666572428E
:1016B000797465733A20002046726565204D656D2A
:1016C0006F72793A2000207C20417574686F723AFD
:1016D0002000204C61737420557064617465643A15
:1016E000200020536F6674776172652052657365C0
:1016F0007400205761746368646F67205265736576
:1017000074002042726F776E206F7574205265737B
:101710006574002045787465726E616C2052657343
:10172000657400506F7765725570006572726F72E4
:101730002077726974696E6720746F2066696C65C2
:1017400000656E6473746F7073206869743A20006A
:10175000446F6E6520736176696E672066696C659B
:101760002E006F6B0058595A2063616C6962726178
:1017700074696F6E20616C6C2072696768742E20CA
:10178000536B65772077696C6C20626520636F729C
:10179000726563746564206175746F6D61746963EB
:1017A000616C6C792E0058595A2063616C696272C1
:1017B0006174696F6E20616C6C2072696768742E49
:1017C00020582F5920617865732061726520736CF1
:1017D000696768746C7920736B657765642E204740
:1017E0006F6F64206A6F62210058595A2063616CE0
:1017F0006962726174696F6E206F6B2E20582F5969
:101800002061786573206172652070657270656E05
:10181000646963756C61722E20436F6E67726174C8
:10182000756C6174696F6E73210058595A20636139
:101830006C6962726174696F6E206661696C65645F
:101840002E2052696768742066726F6E742063611F
:101850006C6962726174696F6E20706F696E74205A
:101860006E6F7420726561636861626C652E0058EA
:10187000595A2063616C6962726174696F6E206687
:1018800061696C65642E2046726F6E742063616CB2
:101890006962726174696F6E20706F696E74732013
:1018A0006E6F7420726561636861626C652E0058AA
:1018B000595A2063616C6962726174696F6E206647
:1018C00061696C65642E20506C6561736520636F7F
:1018D0006E73756C7420746865206D616E75616CD3
:1018E0002E0058595A2063616C6962726174696F85
:1018F0006E20636F6D70726F6D697365642E205218
:10190000696768742066726F6E742063616C6962C7
:10191000726174696F6E20706F696E74206E6F747F
:1019200020726561636861626C652E0058595A20A7
:1019300063616C6962726174696F6E20636F6D7050
:10194000726F6D697365642E2046726F6E742063CA
:10195000616C6962726174696F6E20706F696E7418
:1019600073206E6F7420726561636861626C652EAE
:101970000058595A2063616C6962726174696F6EB4
:10198000206661696C65642E204265642063616C29
:101990006962726174696F6E20706F696E7420770E
:1019A0006173206E6F7420666F756E642E00506CCC
:1019B0006561736520706C61636520737465656C27
:1019C000207368656574206F6E2068656174626558
:1019D000642E0044697374616E6365206265747778
:1019E00065656E20746970206F6620746865206E6E
:1019F0006F7A7A6C6520616E642074686520626518
:101A000064207375726661636520686173206E6F10
:101A100074206265656E20736574207965742E206C
:101A2000506C6561736520666F6C6C6F77207468AD
:101A300065206D616E75616C2C20636861707465E2
:101A4000722046697273742073746570732C2073EE
:101A5000656374696F6E204669727374206C617976
:101A600065722063616C6962726174696F6E2E00C9
:101A7000506C6163652061207368656574206F66D2
:101A800020706170657220756E646572207468657F
:101A9000206E6F7A7A6C6520647572696E67207447
:101AA00068652063616C6962726174696F6E206F32
:101AB00066206669727374203420706F696E747367
:101AC0002E20496620746865206E6F7A7A6C6520D6
:101AD0006361746368657320746865207061706504
:101AE000722C20706F776572206F6666207468654F
:101AF000207072696E74657220696D6D65646961CC
:101B000074656C792E00506C656173652072656D2B
:101B10006F766520737465656C20736865657420E5
:101B200066726F6D20686561746265642E0049732A
:101B300020737465656C207368656574206F6E2012
:101B4000686561746265643F00206F6620340053ED
:101B50006561726368696E67206265642063616CA9
:101B60006962726174696F6E20706F696E740020B3
:101B70006F662039004D6561737572696E672072FA
:101B800065666572656E636520686569676874205F
:101B90006F662063616C6962726174696F6E207038
:101BA0006F696E7400506C6561736520636C65616C
:101BB0006E20746865206E6F7A7A6C6520666F722D
:101BC0002063616C6962726174696F6E2E20436C70
:101BD00069636B207768656E20646F6E652E0041C7
:101BE00075746F20686F6D650078797A63616C5FDA
:101BF0006D656173737572655F656E7465720A00F9
:101C000078797A63616C5F73706972616C38206394
:101C1000783D25642063793D2564207A303D256434
:101C200020647A3D2564207261646975733D256482
:101C30002061643D25640A0078797A63616C5F7382
:101C400065617263685A206E6F207369676E616C9C
:101C50000A20783D256C6420793D256C64207A3D0E
:101C6000256C640A00204F4E2D5349474E414C20AD
:101C7000617420783D256420793D2564207A3D25D6
:101C8000642061643D25640A0078797A63616C5F41
:101C90007365617263685A20783D256C6420793DD4
:101CA000256C64207A3D256C640A000A00253032D8
:101CB000780078797A63616C5F7363616E5F7069D5
:101CC00078656C735F33327833322063783D2564F6
:101CD0002063793D2564206D696E5F7A3D2564201F
:101CE0006D61785F7A3D25640A00202532642025E5
:101CF000640A000A002530327800206D696E3D25A7
:101D000064206D61783D2564206469663D25640A20
:101D1000006D61785F633D253264206D61785F6C92
:101D20003D25640A006D61785F633D2564206D6127
:101D3000785F723D2564206D61785F6D61746368C2
:101D40003D25640A0020783D256420793D256420E6
:101D50007A3D25640A00207061747465726E206695
:101D60006F756E642061742025642025640A00006C
:101D700000F000F801FC03FE07FE07FE07FE07FC6B
:101D800003F801F000000073697A656F6628746FCC
:101D900074616C293D25640A0073697A656F662851
:101DA000626C6F636B5F627566666572293D256460
:101DB0000A0078797A63616C5F6D6561737375721F
:101DC000655F6C656176650A00706F696E743D25AC
:101DD0006420783D256420793D2564207A3D256482
:101DE0000A0058025802584D584DB004F055F055AD
:101DF000B00478797A63616C5F66696E645F62656E
:101E0000645F696E64756374696F6E5F73656E732A
:101E10006F725F706F696E745F787920783D256CA2
:101E20006420793D256C64207A3D256C640A00208D
:101E30003C20005741524E494E473A2046726F6E41
:101E40007420706F696E74206E6F742072656163A8
:101E50006861626C652E205920636F6F7264696ED1
:101E60006174653A0000000040410000C04000007D
:101E70005C430000C04000005C430000464300009B
:101E8000404100004643497465726174696F6E3A5F
:101E9000200043616C6962726174696F6E206661D3
:101EA000696C65642120436865636B2074686520F4
:101EB0006178657320616E642072756E2061676160
:101EC000696E2E006F6B0A0073746172740A004DA4
:101ED0004D5532206669726D776172652076657244
:101EE00073696F6E20696E76616C69642E2052652D
:101EF0007175697265642076657273696F6E3A20D8
:101F00006275696C64206E756D626572202564204F
:101F10006F72206869676865722E004D3630300038
:101F20004D363030204155544F004653454E534FA7
:101F3000525F5245434F5645520025686875005020
:101F4000300A0052300A004525640A0055300A0064
:101F500043300A004C25640A005425640A004D4DA4
:101F600055202D20454E41424C454400256868755A
:101F70000050300A0050300A004D4D5520766572F1
:101F800073696F6E2076616C696400257500533249
:101F90000A002575004D4D55206E6F7420726573D3
:101FA000706F6E64696E67202D2044495341424C26
:101FB00045440053310A004D4D55207374617274CD
:101FC0007320726573706F6E64696E670A004D4DA1
:101FD00055206E6F7420726573706F6E64696E67E2
:101FE0000A000000803F555585410000803F0000F9
:101FF000C84100000040555505420000C03F0000A8
:1020000048420000204055558542000070C1ABAAEF
:10201000A642000060C10000A0410000C0C0000056
:10202000204100002041ABAA3A41000020C1555593
:10203000D540000048C2555505424D373031204546
:1020400030004D373031204531004D37303120459B
:1020500032004D373031204533004D373031204587
:1020600034004D373031204534004D373031204574
:1020700033004D373031204532004D373031204567
:1020800031004D3730312045300046696C616D6557
:102090006E74206E72206F7574206F662072616E90
:1020A00067652100773235783230636C5F63666D27
:1020B0000A00773235783230636C5F656E74657212
:1020C0000A00504154393132355F5245535F593D12
:1020D000256868750A00504154393132355F5245E0
:1020E000535F583D256868750A00506C65617365DB
:1020F00020757064617465206669726D77617265C0
:1021000020696E20796F7572204D4D55322E205703
:10211000616974696E6720666F7220726573657499
:102120002E004D4D55204F4B2E20526573756D6915
:102130006E672E2E2E004D4D55204F4B2E20526592
:1021400073756D696E6720706F736974696F6E2E39
:102150002E2E004D4D55204F4B2E20526573756D20
:10216000696E672074656D70657261747572652E35
:102170002E2E004669782074686520697373756532
:1021800020616E64207468656E20707265737320C0
:10219000627574746F6E206F6E204D4D5520756E94
:1021A00069742E00507265737320746865206B6EBD
:1021B0006F6220746F20726573756D65206E6F7A23
:1021C0007A6C652074656D70657261747572652EC8
:1021D000004D4D55206E65656473207573657220E2
:1021E000617474656E74696F6E2E00506C656173F6
:1021F000652072656D6F76652066696C616D656ED0
:102200007420616E64207468656E207072657373EB
:1022100020746865206B6E6F622E00456A6563747A
:10222000696E672066696C616D656E740025632553
:1022300033642F256425630053657474696E677376
:102240002053746F7265640053746F7265642073F9
:10225000657474696E6773207265747269657665FA
:10226000640048617264636F6465642044656661FC
:10227000756C742053657474696E6773204C6F615C
:1022800064656400563200000000C8420000C84285
:102290000000C84300008C4300004843000048434E
:1022A000000040410000F042E8030000E8030000A5
:1022B000C80000008813000000409C4400409C447B
:1022C0000000000000000000204E0000000020413F
:1022D00000002041CDCCCC3E00002040000000009A
:1022E0000000000000000000CDCCCC3E3D0A814142
:1022F000FF08433EB099AB438F42FC42E65A343F5D
:102300004C62B04500000000004040000034420034
:102310000000000000000000000041000000E03F5D
:102320000000C8420000C842000040410000F042E6
:10233000C0030000C0030000C800000088130000B4
:10234000454550524F4D204572726F7200436F6E7B
:1023500074696E7565207769746820616E6F746842
:10236000657220626F7764656E3F00250020202033
:1023700020202000202020202020004552415349C9
:102380004E4720616C6C2064617461004661637427
:102390006F72792052455345540000007F430080FE
:1023A00054430000524300000000000080C09A998E
:1023B000193E00000000000080C09A99193E25696E
:1023C00020686F757273202569206D696E7574655C
:1023D000730054494D454F55543A004D313130004A
:1023E00046756C6C205258204275666665720066B0
:1023F00073656E736F725F73746F705F616E645F2D
:10240000736176655F7072696E740A006673656EDB
:10241000736F725F726573746F72655F7072696EED
:10242000745F616E645F636F6E74696E75650A00D8
:1024300044495341424C45440A00454E41424C45B3
:1024400044004653656E736F722025530A00504155
:1024500054393132355F696E69743A256868750A96
:1024600000504154393132355F696E69743A2568DC
:1024700068750A0050415439313235206E6F74202E
:10248000726573706F6E64696E67202825642921F8
:102490000A00446F6E65207072696E74696E672001
:1024A00066696C65005072696E7465722073746F32
:1024B000707065642064756520746F206572726F3A
:1024C00072732E2046697820746865206572726F79
:1024D0007220616E6420757365204D39393920741E
:1024E0006F20726573746172742E202854656D704C
:1024F00065726174757265206973207265736574A5
:102500002E20536574206974206166746572207290
:10251000657374617274696E6729004E6F204C692F
:102520006E65204E756D62657220776974682063F0
:102530006865636B73756D2C204C617374204C69F6
:102540006E653A20004E6F20436865636B73756D4E
:102550002077697468206C696E65206E756D6265A0
:10256000722C204C617374204C696E653A200063B4
:102570006865636B73756D206D69736D61746368F5
:102580002C204C617374204C696E653A20004C69B4
:102590006E65204E756D626572206973206E6F7472
:1025A000204C617374204C696E65204E756D6265B8
:1025B000722B312C204C617374204C696E653A206B
:1025C000006673656E736F725F6175746F6C6F61B7
:1025D000645F636865636B5F7374617274202D2040
:1025E0006175746F6C6F616420454E41424C454487
:1025F0000A006673656E736F725F6175746F6C6FDE
:1026000061645F636865636B5F73746F70202D2016
:102610006175746F6C6F61642044495341424C454D
:10262000440A0053544F505045442E200024F4D403
:102630003050C38E20C2A24017828B7011127A9143
:102640000D816CD90AA861E108C75866076151433A
:10265000061E4B5D05C145A7041A411104093D98AA
:1026600003713931034036DB0265339102D43054B3
:1026700002802E1D02632CEE01752AC501B028A030
:1026800001102781018F2564012B244B01E02234A6
:1026900001AC211F018D200D01801FFC00841EED67
:1026A00000971DDF00B81CD200E61BC600201BBC33
:1026B00000641AB200B219A8000A19A0006A189999
:1026C00000D117910040178B00B516840031167E9B
:1026D00000B31579003A157300C7146F0058146AD7
:1026E00000EE1366008813630025135E00C7125BBB
:1026F000006C12570015125400C111510070114F97
:102700000021114B00D61049008D1047004610449F
:102710000002104200C00F4000800F3E00420F3CFC
:1027200000060F3B00CB0E3800930E37005C0E35D1
:1027300000270E3400F30D3200C10D3100900D3032
:1027400000600D2E00320D2D00050D2C00D90C2B34
:1027500000AE0C2900850C29005C0C2700350C27E5
:10276000000E0C2600E80B2400C40B2400A00B2351
:10277000007D0B23005A0B2100390B2100180B2080
:1027800000F80A1F00D90A1E00BB0A1E009D0A1D80
:1027900000800A1D00630A1C00470A1B002C0A1B4C
:1027A00000110A1A00F7091A00DD091900C40919F5
:1027B00000AB091900920917007B0918006309177B
:1027C000004C09160036091600200916000A0915E2
:1027D00000F5081500E0081400CC081400B808142F
:1027E00000A4081400900813007D0812006B081361
:1027F000005808120046081200340811002308117E
:10280000001208110001081100F0071000E0071085
:1028100000D0071000C0071000B0070F00A107107C
:102820000091070E0083070F0074070F0065070E65
:102830000057070E0049070E003B070D002E070E3C
:102840000020070D0013070D0006070D00F9060C08
:1028500000ED060D00E0060C00D4060C00C8060CC6
:1028600000BC060C00B0060C00A4060B0099060C78
:10287000008D060B0082060B0077060B006C060B22
:102880000061060A0057060B004C060A0042060AC1
:102890000038060A002E060A0024060A001A060A54
:1028A000001006090007060A00FD050900F40509E5
:1028B00000EB050900E2050900D9050900D005096A
:1028C00000C7050900BE050900B5050800AD0508EB
:1028D00000A50509009C050800940508008C050862
:1028E00000840508007C050800740508006C0507D5
:1028F00000650508005D050700560508004E050740
:1029000000470507004005080038050700310507A6
:10291000002A050700230507001C05060016050709
:10292000000F0507000805060002050700FB040666
:1029300000F5040700EE040600E8040600E20407C0
:1029400000DB040600D5040600CF040600C9040617
:1029500000C3040600BD040600B7040600B1040568
:1029600000AC040600A6040600A00405009B0406B3
:102970000095040500900406008A040500850405FE
:1029800000800406007A0405007504050070040543
:10299000006B04050066040500610405005C040585
:1029A0000057040500520405004D040500480405C5
:1029B00000430405003E0404003A04050035040504
:1029C00000300404002C040500270404002304053F
:1029D000001E0404001A0404001604050011040477
:1029E000000D0404000904050004040400000404AC
:1029F00000FC030400F8030400F4030400F00304E3
:102A000000EC030400E8030400E4030400E0030412
:102A100000DC030400D8030400D4030400D0030442
:102A200000CC030400C8030300C503030024F4041E
:102A3000D9201BC40C5C0E9804C4095F02650771A1
:102A400001F405F900FB04B30048048700C10369E1
:102A5000005803550003034500BE023A00840231CA
:102A60000053022A002902250004022000E4011C70
:102A700000C8011900AF0117009801140084011368
:102A800000710110006101100051010E0043010DA1
:102A90000036010B002B010B0020010B0015010972
:102AA000000C01090003010800FB000800F3000806
:102AB00000EB000700E4000600DE000600D8000678
:102AC00000D2000600CC000500C7000500C20005CA
:102AD00000BD000400B9000400B5000400B100040A
:102AE00000AD000400A9000400A5000300A200033B
:102AF000009F0004009B0003009800030095000263
:102B00000093000300900003008D0002008B00037F
:102B10000088000200860002008400030081000299
:102B2000007F0002007D0002007B000200790002AD
:102B300000770001007600020074000200720001BC
:102B400000710002006F0002006D0001006C0002C5
:102B5000006A0001006900020067000100660001D0
:102B600000650001006400020062000100610001D4
:102B700000600001005F0002005D0001005C0001D8
:102B8000005B0001005A00010059000100580001DB
:102B900000570001005600010055000100540001DB
:102BA00000530000005300010052000100510001D9
:102BB00000500001004F0001004E0000004E0001D7
:102BC000004D0001004C0001004B0000004B0001D3
:102BD000004A0001004900010048000000480001CF
:102BE00000470001004600000046000100450000CB
:102BF00000450001004400010043000000430001C3
:102C000000420000004200010041000000410001BC
:102C100000400001003F0000003F0001003E0000B6
:102C2000003E0001003D0000003D0001003C0000AE
:102C3000003C0000003C0001003B0000003B0001A4
:102C4000003A0000003A000100390000003900019C
:102C50000038000000380000003800010037000094
:102C60000037000100360000003600000036000189
:102C70000035000000350000003500010034000080
:102C80000034000000340001003300000033000075
:102C90000033000100320000003200000032000169
:102CA0000031000000310000003100010030000060
:102CB0000030000000300001002F0000002F000055
:102CC000002F0000002F0001002E0000002E000049
:102CD000002E0001002D0000002D0000002D00003E
:102CE000002D0001002C0000002C0000002C000032
:102CF000002C0001002B0000002B0000002B000026
:102D0000002B0001002A0000002A0000002A000019
:102D1000002A00010029000000290000002900000D
:102D20000029000000290001002800000028000000
:102D300000280000002800000028000100270000F3
:102D400000270000002700000027000000270001E6
:102D500000260000002600000026000000260000DB
:102D600000260001002500000025000000250000CD
:102D700000250000002500000025000100240000BF
:102D800000240000002400000024000000240001B2
:102D900000230000002300000023000000230000A7
:102DA0000023000000230000002300010022000097
:102DB000002200000022000000220000002200008B
:102DC000002200010021000000210000002100007D
:102DD000002100000021000000210000002100016E
:102DE0000020000000200000002000000020000063
:102DF0000020000000200000002000000020000152
:102E0000001F0000001F0000001F0000001F000046
:102E1000001F0000001F0000001F0001001E000036
:102E2000001E0000001E0000001E000000204232B4
:102E30003A0020423A0020453A00543A00494E54A4
:102E400034007265636F7665725F6D616368696E89
:102E5000655F73746174655F61667465725F706FDE
:102E60007765725F70616E69632C20696E69746941
:102E7000616C20007265636F7665725F6D61636877
:102E8000696E655F73746174655F61667465725FB6
:102E9000706F7765725F70616E69632C20696E690F
:102EA0007469616C200047393220450050525553F7
:102EB000412075766C6F004734205330004D323618
:102EC0002053256C75004D3130362053004D38327B
:102ED000004731204625640047312045322A646589
:102EE0006661756C745F72657472616374696F6E2C
:102EF0002046343830004731205A002046323030E6
:102F0000300020590047312058004D383300506FB1
:102F1000736974696F6E20726561642066726F6D8B
:102F200020656570726F6D3A004D32332025730055
:102F30002E67636F0046656564726174653A004789
:102F40003120452D64656661756C745F72657472BD
:102F5000616374696F6E2046343830004731204514
:102F6000352046313230004D3833004D3139302074
:102F7000532564004D31393020532564004D3130E4
:102F800039205325640047323820582059004731F2
:102F9000205A3235204638303000627573793A2035
:102FA00070617573656420666F7220696E707574E8
:102FB00000627573793A2070617573656420666F7D
:102FC00072207573657200627573793A2070726F42
:102FD00063657373696E67002046004731205A00AD
:102FE00020460047312045004D3833006F6B0A0002
:102FF00055564C4F202D20656E642025640A0073C1
:1030000074707325640A00776F726C6420636F6F4D
:103010007264696E617465733A2028252E33662CBC
:1030200020252E33662C20252E3366290A00706851
:1030300079736963616C20636F6F7264696E617428
:1030400065733A2028252E33662C20252E33662CD6
:1030500020252E3366290A0043757272656E74202E
:10306000706F73205A5F415849533A252E33660AD0
:1030700043757272656E7420706F7320455F41589E
:1030800049533A252E33660A0041667465722077EB
:10309000616974696E6720666F722074656D703A3D
:1030A0000A43757272656E7420706F7320585F41A9
:1030B0005849533A252E33660A43757272656E7409
:1030C00020706F7320595F415849533A252E33665B
:1030D0000A005265636F766572696E672070726967
:1030E0006E7420202020001000C90210012C014025
:1030F00001220170011801B0010E01F0010401501C
:1031000002FA00B002F0003003E600D003DC0090C9
:1031100004D2007005C800A006BE000008B400B0CC
:1031200009AA00D00BA000600E960060118C000070
:1031300015820020197800C01D6E00A0226400B026
:10314000275A00902C500000314600E0343C00101B
:10315000383200903A2800603C1E00A03D140080E8
:103160003E0A00203F000070012C0190012701B0B1
:10317000012201C0011D01F00118011002130130EC
:10318000020E016002090190020401C002FF00006A
:1031900003FA004003F5008003F000D003EB0020A9
:1031A00004E6007004E100E004DC004005D700C044
:1031B00005D2004006CD00D006C8008007C300300D
:1031C00008BE00F008B900C009B400B00AAF00B0F2
:1031D0000BAA00D00CA500000EA000500F9B00C051
:1031E0001096005012910000148C00C0158700B09A
:1031F000178200B0197D00D01B7800001E730040BC
:10320000206E0090226900F024640040275F009047
:10321000295A00E02B5500102E500020304B001092
:10322000324600E033410090353C001037370070E3
:10323000383200A0392D00B03A2800A03B230060AE
:103240003C1E00103D1900903D1400103E0F007010
:103250003E0A00C03E0500003F000090137D00B014
:10326000157800F0177300601A6E00F01C6900A05A
:103270001F640050225F0020255A00E0275500906F
:103280002A5000202D4B00A02F4600F031410010A5
:10329000343C00F0353700A037320020392D006073
:1032A0003A2800703B2300603C1E00203D1900C0FE
:1032B0003D1400403E0F00A03E0A00F03E050040D5
:1032C0003F0000703FFBFF903FF6FFB03FF1FFC0B3
:1032D0003FECFFD03FE7FFE03FE2FFF03FDDFFF0D4
:1032E0003FD8FF20484F54454E4420544845524D46
:1032F000414C2052554E41574159002048454154B8
:1033000042454420544845524D414C2052554E416F
:1033100057415900544845524D414C2052554E4159
:103320005741590042454420544845524D414C2094
:1033300052554E415741590020544845524D414C39
:103340002052554E4157415920282050524548455A
:10335000415420484F54454E44290020544845527A
:103360004D414C2052554E41574159202820505232
:103370004548454154204845415442454429005060
:10338000524548454154204552524F52004245440F
:103390002050524548454154204552524F52004515
:1033A00072723A204D415854454D50003A204578AC
:1033B00074727564657220737769746368656420DC
:1033C0006F66662E204D415854454D5020747269E9
:1033D0006767657265642021004572723A204D412D
:1033E0005854454D50204245440054656D706572F7
:1033F00061747572652068656174656420626564D6
:10340000207377697463686564206F66662E204D4B
:10341000415854454D502074726967676572656400
:103420002021004572723A204D415854454D50209C
:10343000424544320054656D706572617475726501
:1034400020686561746564206265642073776974BF
:1034500063686564206F66662E204D415854454D63
:103460005020747269676765726564202100457237
:10347000723A204D494E54454D5020424544005427
:10348000656D7065726174757265206865617465DB
:103490006420626564207377697463686564206F73
:1034A00066662E204D494E54454D50207472696712
:1034B00067657265642021004572723A204D494E5D
:1034C00054454D50003A20457874727564657220F9
:1034D0007377697463686564206F66662E204D4952
:1034E0004E54454D5020747269676765726564205B
:1034F0002100746D63323133305F686F6D655F65D5
:103500006E74657228617865735F6D61736B3D30B1
:103510007825303278290A00746D63323133305F98
:10352000686F6D655F6578697420746D63323133DF
:10353000305F73675F686F6D696E675F6178657331
:103540005F6D61736B3D3078253032780A00506CC6
:1035500065617365206C6F616420504C4120666921
:103560006C616D656E742066697273742E004973A8
:1035700020504C412066696C616D656E74206C6FE3
:10358000616465643F0043616E63656C0046696C0D
:10359000616D656E740053656C65637420504C41B9
:1035A0002066696C616D656E743A0052756E6E6965
:1035B0006E672057697A6172642077696C6C206449
:1035C000656C6574652063757272656E74206361E5
:1035D0006C6962726174696F6E20726573756C7468
:1035E0007320616E642073746172742066726F6DF3
:1035F0002074686520626567696E6E696E672E204B
:10360000436F6E74696E75653F00507265686561E1
:1036100074696E67206E6F7A7A6C652E20506C65C7
:1036200061736520776169742E00456A6563740073
:10363000556E6C6F61640055736520756E6C6F61BB
:103640006420746F2072656D6F76652066696C61A9
:103650006D656E7420312069662069742070726F08
:10366000747275646573206F757473696465206F17
:1036700066207468652072656172204D4D55207416
:103680007562652E2055736520656A6563742069CF
:10369000662069742069732068696464656E2069B6
:1036A0006E20747562652E004C6F6164696E6720D0
:1036B00066696C616D656E7400506C656173652040
:1036C000696E7365727420504C412066696C616D3F
:1036D000656E7420746F20746865206578747275E7
:1036E0006465722C207468656E2070726573732037
:1036F0006B6E6F6220746F206C6F61642069742E32
:1037000000506C6561736520696E7365727420503A
:103710004C412066696C616D656E7420746F207415
:1037200068652066697273742074756265206F66BF
:10373000204D4D552C207468656E20707265737332
:1037400020746865206B6E6F6220746F206C6F61EF
:10375000642069742E00596F752063616E20616C5E
:103760007761797320726573756D65207468652063
:1037700057697A6172642066726F6D2043616C696B
:1037800062726174696F6E202D3E2057697A617292
:10379000642E00506C6561736520636865636B20FF
:1037A0006F75722068616E64626F6F6B20616E640A
:1037B00020666978207468652070726F626C656D30
:1037C0002E205468656E20726573756D652074686F
:1037D000652057697A617264206279207265626F30
:1037E0006F74696E6720746865207072696E7465A5
:1037F000722E00416C6C20697320646F6E652E2000
:103800004861707079207072696E74696E6721000A
:10381000506C6561736520636C65616E20686561DD
:103820007462656420616E64207468656E207072D5
:1038300065737320746865206B6E6F622E00446F31
:1038400020796F752077616E7420746F20726570B7
:10385000656174206C617374207374657020746F7B
:1038600020726561646A7573742064697374616E33
:103870006365206265747765656E206E6F7A7A6C19
:103880006520616E6420686561746265643F00490B
:103890002077696C6C20737461727420746F20706F
:1038A00072696E74206C696E6520616E6420796F38
:1038B000752077696C6C206772616475616C6C79D6
:1038C000206C6F77657220746865206E6F7A7A6CF1
:1038D0006520627920726F746174696E6720746804
:1038E00065206B6E6F622C20756E74696C20796F29
:1038F00075207265616368206F7074696D616C20FA
:103900006865696768742E20436865636B20746816
:103910006520706963747572657320696E206F75B8
:10392000722068616E64626F6F6B20696E206368DD
:1039300061707465722043616C6962726174696F51
:103940006E2E004E6F7720492077696C6C20636182
:103950006C6962726174652064697374616E636519
:10396000206265747765656E20746970206F6620CB
:10397000746865206E6F7A7A6C6520616E64206869
:1039800065617462656420737572666163652E009B
:10399000497320697420504C412066696C616D65E3
:1039A0006E743F0053656C656374206E6F7A7A6C39
:1039B0006520707265686561742074656D706572EC
:1039C0006174757265207768696368206D617463DE
:1039D00068657320796F7572206D617465726961B5
:1039E0006C2E004E6F7720492077696C6C207072C6
:1039F0006568656174206E6F7A7A6C6520666F7297
:103A000020504C412E0049732066696C616D656ED3
:103A100074206C6F616465643F0049732066696C53
:103A2000616D656E742031206C6F616465643F0068
:103A30004E6F7720492077696C6C207072656865DD
:103A40006174206E6F7A7A6C6520666F7220504CBC
:103A5000412E00492077696C6C2072756E207A20A7
:103A600063616C6962726174696F6E206E6F772E2C
:103A7000004E6F772072656D6F76652074686520E3
:103A800074657374207072696E742066726F6D2035
:103A9000737465656C2073686565742E00506C6581
:103AA0006173652072656D6F7665207368697070EB
:103AB000696E672068656C706572732066697273E1
:103AC000742E00492077696C6C2072756E207879AD
:103AD0007A2063616C6962726174696F6E206E6FC7
:103AE000772E2049742077696C6C2074616B652097
:103AF000617070726F782E203132206D696E732E76
:103B00000046697273742C20492077696C6C2072AE
:103B1000756E207468652073656C667465737420B7
:103B2000746F20636865636B206D6F737420636FBF
:103B30006D6D6F6E20617373656D626C792070724C
:103B40006F626C656D732E0048692C204920616D91
:103B500020796F7572204F726967696E616C2050B1
:103B600072757361206933207072696E7465722E8C
:103B700020576F756C6420796F75206C696B6520B8
:103B80006D6520746F20677569646520796F752095
:103B90007468726F756768207468652073657475E2
:103BA000702070726F636573733F00452D636F7291
:103BB00072656374005A2D636F7272656374005985
:103BC0002D636F727265637400582D636F72726536
:103BD00063740053706F6F6C4A6F696E2020205BB6
:103BE0004E2F415D0053706F6F6C4A6F696E2020DD
:103BF000205B6F66665D0053706F6F6C4A6F696E15
:103C0000202020205B6F6E5D00536F756E64202056
:103C1000202020205B6C6F75645D00536F756E64AF
:103C20002020202020205B6D7574655D00536F752A
:103C30006E64202020205B73696C656E745D005398
:103C40006F756E642020202020205B6F6E63655DA1
:103C500000536F756E642020202020205B6C6F75F0
:103C6000645D00536F72743A2020202020205B6E28
:103C70006F6E655D00536F72743A20205B616C70EB
:103C800068616265745D00536F72743A2020202071
:103C900020205B74696D655D00534420636172642C
:103CA00020205B6E6F726D616C5D00534420636118
:103CB0007264205B666C73684169725D0052506982
:103CC00020706F727420202020205B6F6E5D005288
:103CD000506920706F7274202020205B6F66665DD3
:103CE0000054656D702E2063616C2E2020205B6F68
:103CF0006E5D0054656D702E2063616C2E20205B1C
:103D00006F66665D004C696E2E20636F727265632C
:103D100074696F6E0046616E7320636865636B2023
:103D2000205B6F66665D0046616E73206368656345
:103D30006B2020205B6F6E5D00462E206175746FD6
:103D40006C6F6164205B6F66665D00462E20617556
:103D5000746F6C6F616420205B6F6E5D00462E2077
:103D60006175746F6C6F6164205B4E2F415D00461E
:103D7000696C2E2073656E736F72205B4E2F415DF0
:103D80000044697361626C6520737465707065725C
:103D900073004D6F766520617869730054656D70AE
:103DA000657261747572650054656D702E20636173
:103DB0006C6962726174696F6E005265736574201C
:103DC00058595A2063616C6962722E0053686F778C
:103DD0002070696E64612073746174650050494499
:103DE0002063616C6962726174696F6E0042656420
:103DF000206C6576656C20636F7272656374004D2C
:103E000065736820426564204C6576656C696E67F1
:103E10000043616C696272617465205A0043616C91
:103E20006962726174652058595A0053656C6674F2
:103E300065737420202020202020202000466972F5
:103E40007374206C617965722063616C2E00576910
:103E50007A617264004C6F61642066696C616D65A3
:103E60006E742035004C6F61642066696C616D650D
:103E70006E742034004C6F61642066696C616D65FE
:103E80006E742033004C6F61642066696C616D65EF
:103E90006E742032004C6F61642066696C616D65E0
:103EA0006E742031004C6F616420616C6C004C6F4B
:103EB00061642066696C616D656E742035004C6FBD
:103EC00061642066696C616D656E742034004C6FAE
:103ED00061642066696C616D656E742033004C6F9F
:103EE00061642066696C616D656E742032004C6F90
:103EF00061642066696C616D656E74203100456A8D
:103F00006563742066696C616D656E74203500456B
:103F10006A6563742066696C616D656E7420340037
:103F2000456A6563742066696C616D656E742033E3
:103F300000456A6563742066696C616D656E742006
:103F40003200456A6563742066696C616D656E74E4
:103F5000203100506C656173652070756C6C206F4A
:103F600075742066696C616D656E7420696D6D6530
:103F700064696174656C7900556E6C6F6164696E1B
:103F8000672066696C616D656E740057697A61724D
:103F90006420656E642073746174653A2025640A38
:103FA0000057697A6172642073746174653A2025E0
:103FB000640044697361626C65206661726D206D96
:103FC0006F6465004661726D206E756D626572008A
:103FD0004D3834004D3434004732382057004739CB
:103FE000390044697361626C65206661726D206D91
:103FF0006F64653F0043686F6F736520636F6C6F1C
:10400000723A00544D4320445249564552204F566F
:10401000455254454D500025632533642F256425B2
:1040200063005A25362E326620005A2020202D2D7E
:104030002D20002D2D2D0025336868640025335375
:10404000253373252500205344002020200055539C
:1040500042002025753E2575002046257500204626
:104060003020200025632D2D3A2D2D2020002563A2
:104070002533756820256325630025632530327557
:104080003A253032752563256300726573756C744B
:104090002076616C75653A2025640A0020693D250B
:1040A000326420636E743D2532642076616C3D2558
:1040B00032640A00636C7573746572733A0A002087
:1040C000693D25326420737465703D2532640A00B1
:1040D000736F727465642073616D706C65733A0AF6
:1040E000005553415254322072782046756C6C2131
:1040F00021210A003A2000202020202020202020FA
:104100002020202020202020202000203A200020D5
:10411000202020202020202020202020202020209F
:1041200020202000202020202020202020202020AF
:10413000200025730050494E444120486561746950
:104140006E670054656D702E2063616C2E202020F8
:10415000202020202020200043616C69627261745D
:10416000696F6E20646F6E650043616C6962726195
:1041700074696E67205A0042656420646F6E650042
:104180004265642048656174696E670048656174C2
:10419000696E6720646F6E652E0048656174696E94
:1041A000670000002110422063308440A550C660A3
:1041B000E770088129914AA16BB18CC1ADD1CEE1E4
:1041C000EFF13112100273325222B5529442F7725B
:1041D000D662399318837BB35AA3BDD39CC3FFF334
:1041E000DEE36224433420040114E664C774A4446B
:1041F00085546AA54BB528850995EEE5CFF5ACC584
:104200008DD55336722611163006D776F66695563A
:10421000B4465BB77AA719973887DFF7FEE79DD7D3
:10422000BCC7C448E5588668A778400861180228CA
:104230002338CCC9EDD98EE9AFF9488969990AA923
:104240002BB9F55AD44AB77A966A711A500A333A9A
:10425000122AFDDBDCCBBFFB9EEB799B588B3BBB73
:104260001AABA66C877CE44CC55C222C033C600C2A
:10427000411CAEED8FFDECCDCDDD2AAD0BBD688DC3
:10428000499D977EB66ED55EF44E133E322E511E7A
:10429000700E9FFFBEEFDDDFFCCF1BBF3AAF599F13
:1042A000788F8891A981CAB1EBA10CD12DC14EF1B3
:1042B0006FE18010A100C230E32004502540467019
:1042C0006760B9839893FBA3DAB33DC31CD37FE344
:1042D0005EF3B1029012F322D23235421452776269
:1042E0005672EAB5CBA5A89589856EF54FE52CD514
:1042F0000DC5E234C324A0148104667447642454B9
:104300000544DBA7FAB79987B8975FE77EF71DC723
:104310003CD7D326F2369106B01657667676154608
:1043200034564CD96DC90EF92FE9C899E9898AB973
:10433000ABA94458654806782768C018E108823858
:10434000A3287DCB5CDB3FEB1EFBF98BD89BBBAB83
:104350009ABB754A545A376A167AF10AD01AB32AA8
:10436000923A2EFD0FED6CDD4DCDAABD8BADE89DD3
:10437000C98D267C076C645C454CA23C832CE01CF8
:10438000C10C1FEF3EFF5DCF7CDF9BAFBABFD98F63
:10439000F89F176E367E554E745E932EB23ED10E48
:1043A000F01E7C3C3E5E2B3D3F2F5B5D3B2C2A226A
:1043B0005C0022206661696C65643A20427566661D
:1043C00065722066756C6C21002200656E717565E2
:1043D000696E67202200566F6C74616765730054C4
:1043E000656D7065726174757265730042656C7499
:1043F00020737461747573004578747275646572A6
:1044000020696E666F0058595A2063616C2E2064D3
:10441000657461696C7300756E6B6E6F776E004DBD
:104420004D553220636F6E6E656374656400446140
:1044300074653A00686F77746F2E707275736133AC
:10444000642E636F6D00666F72756D2E707275737A
:104450006133642E636F6D00707275736133642E07
:10446000636F6D0046696C616D656E74206578746C
:10447000727564696E672026207769746820636F9F
:10448000727265637420636F6C6F723F0050726567
:104490006865617420746865206E6F7A7A6C652136
:1044A000004552524F523A004175746F6C6F61640F
:1044B000696E672066696C616D656E742069732032
:1044C0006163746976652C206A75737420707265F7
:1044D000737320746865206B6E6F6220616E642058
:1044E000696E736572742066696C616D656E742E99
:1044F0002E2E00546F74616C207072696E7420747B
:10450000696D6500546F74616C2066696C616D65DE
:104510006E74005072696E742074696D650046692E
:104520006C616D656E7420757365640052696768AF
:1045300074004C65667400592064697374616E631D
:10454000652066726F6D206D696E005365766572C9
:104550006520736B657700536C6967687420736BB3
:104560006577004D6561737572656420736B65775F
:10457000005B303B305D20706F696E74206F666643
:104580007365740041646A757374696E67205A00BC
:1045900052657365740052656172207369646520A9
:1045A0005B756D5D0046726F6E7420736964655B48
:1045B000756D5D00526967687420736964655B7529
:1045C0006D5D004C6566742073696465205B756D74
:1045D0005D005365742074656D70657261747572E9
:1045E000653A00466C617368416972204950204108
:1045F0006464723A004D4D55322020202020202046
:104600004E2F410025642E25642E25642D2564003F
:104610002046573A004E6F762032382032303138FB
:1046200000453344763666756C6C0045494E5379C7
:104630005F31306100315F37356D6D5F4D4B330059
:104640002D2D2D2D2D2D2D2D2D2D2D2D0020726557
:10465000706F20556E6B6E6F776E0020332E352E87
:10466000302D31373439004669726D776172653AA1
:104670000025642E25642E25642E2564004D3730D8
:1046800032004D37303100457874727564657200C0
:104690006D6D000059005800580059005A002563FC
:1046A000252E3132533A2573252B30362E336600B2
:1046B0001B5B324A2553203A1B5B313B3948253876
:1046C0002E3266206D0A2553203A0A25376C646421
:1046D000203A253268686468203A25303268686478
:1046E000206D001B5B324A25533A1B5B313B364839
:1046F00025382E32666D200A2553203A1B5B333B4A
:1047000038482532646820253032646D20253032E7
:1047100064730025362E32666D6D004E2F41001BEE
:104720005B303B304825533A0A25530A25533A0A51
:1047300025533A001B5B303B3135484E2F41001B5F
:104740005B303B31354825342E326601001B5B302F
:104750003B304825533A0A25530A25533A20202551
:10476000352E3266010A25533A202025352E326631
:10477000010020003E003E0020003E003E00546547
:104780006D70657261747572652063616C696272C7
:104790006174696F6E206661696C65642E20436F79
:1047A0006E74696E756520776974682070726573C0
:1047B00073696E6720746865206B6E6F622E00549B
:1047C000656D70657261747572652063616C696294
:1047D000726174696F6E20646F6E652E20436F6E18
:1047E00074696E756520776974682070726573737B
:1047F000696E6720746865206B6E6F622E005A3098
:1048000020284C4544206F6E2920005A3120284C26
:104810004544206F66662900502E492E4E2E442EA8
:10482000412E20737461746500473830004D343573
:10483000004D3435205A004737360054656D706599
:104840007261747572652063616C6962726174690A
:104850006F6E206661696C65640054656D70657289
:1048600061747572652063616C6962726174696FED
:104870006E2069732066696E697368656420616E75
:1048800064206163746976652E2054656D702E20F6
:1048900063616C6962726174696F6E2063616E201E
:1048A00062652064697361626C656420696E206D65
:1048B000656E752053657474696E67732D3E54651B
:1048C0006D702E2063616C2E00457874727564657E
:1048D00072004D6F7665205A004D6F766520590045
:1048E0004D6F76652058001B5B324A4372617368D6
:1048F00020646574656374696F6E2063616E1B5B11
:10490000313B30486265207475726E6564206F6E4D
:10491000206F6E6C7920696E1B5B323B30484E6FA6
:10492000726D616C206D6F6465001B5B324A57418C
:10493000524E494E473A1B5B313B304843726173DC
:104940006820646574656374696F6E1B5B323B300D
:104950004864697361626C656420696E1B5B333BFC
:104960003048537465616C7468206D6F64650041F4
:1049700075746F6C6F6164696E672066696C616DD8
:10498000656E7420617661696C61626C65206F6E22
:104990006C79207768656E2066696C616D656E74F0
:1049A0002073656E736F72206973207475726E6503
:1049B00064206F6E2E2E2E004552524F523A2046E2
:1049C000696C616D656E742073656E736F722069BA
:1049D00073206E6F7420726573706F6E64696E679A
:1049E0002C20706C6561736520636865636B206360
:1049F0006F6E6E656374696F6E2E0043616C6962E1
:104A0000726174650043757272656E7400557365EA
:104A10006420647572696E67207072696E740050EC
:104A200049442063616C2E2066696E697368656411
:104A3000005049442063616C2E202020202020203B
:104A40002020202000506C656173652077616974B7
:104A5000004D313137204669727374206C6179657D
:104A6000722063616C2E005072696E7420706175E3
:104A700073656400496E76616C6964205049442016
:104A800063616C2E20726573756C74732E204E6F8B
:104A9000742073746F72656420746F2045455052A2
:104AA0004F4D2E004D353030004731205A313520E2
:104AB00046313530300047393100473120583530E4
:104AC00020593139302045302046373030300047CA
:104AD0003930004D373032004D3730322043004DF1
:104AE0003730322055004D373032004D37303220CC
:104AF00043004731205A31352046313530300047A8
:104B0000393100473120583530205931393020456E
:104B100030204637303030004D38330047393000D0
:104B20004D3834004D313034205330004D3834008E
:104B30004D37303220430047312058313020593131
:104B40003830204634303030004731205A31302060
:104B500046313330302E303030004D313430205338
:104B600030004D31303420533000473120452D3056
:104B70002E30373530302046323130302E30303024
:104B80003030004D31303700473120583530205912
:104B900035352045332E36323737330047312058EC
:104BA000323030205935352045302E3439333836BF
:104BB0000047312058323030205937352045332EC8
:104BC00036323737330047312058353020593735A2
:104BD0002045302E343933383600473120583530AF
:104BE000205939352045332E363237373300473197
:104BF0002058323030205939352045302E34393361
:104C00003836004731205832303020593131352084
:104C100045332E3632373733004731205835302070
:104C2000593131352045302E34393338360047314B
:104C30002058353020593133352045332E36323720
:104C40003733004731205832303020593133352046
:104C500045302E3636313734004731205832303027
:104C600020593135352045322E363237373300471B
:104C70003120583130302059313535204532004708
:104C8000312058373520593135352045322E350001
:104C90004731204631303830004731205A302E31EC
:104CA00035302046373230302E303030004731201A
:104CB00058353020593135350047312046343030B1
:104CC00030004D3230342053313030300047312005
:104CD0005A352046373230302E30303000473120C0
:104CE000452D312E35303030302046323130302EA7
:104CF0003030303030004D383300473930004732E3
:104D000031004739322045302E30004731205831AC
:104D100030302E30204531322E3520463130303083
:104D20002E30004731205836302E302045392E3075
:104D30002046313030302E300047312058352E306B
:104D40002045342E302046313030302E300047316F
:104D5000205A302E32302046313030302E3000474D
:104D600031205835352E302045323520463134300B
:104D7000302E3000473120592D322E302046313030
:104D800030302E3000473120583234302E3020451C
:104D900032352E30202046323230302E3000473926
:104DA000322045302E30004731205A302E332046F5
:104DB000313030302E30004731205835352E3020FC
:104DC00045382E302046323030302E3000473120EA
:104DD00058352E30204533322E3020463138303091
:104DE0002E30004731205835352E30204533322EB5
:104DF000302046313037332E30004731205A302EA4
:104E0000342046313030302E3000473120592D3398
:104E10002E302046313030302E30004D38330047B0
:104E200039322045302E3000473238004D3130398C
:104E30002053323135004D31393020533630004D5A
:104E400031343020533630004D313034205332313C
:104E500035004D31303700526573656E640025535F
:104E60003A20256C640A25530A002079645F6D6935
:104E70006E3D25752079645F6D61783D25752079DB
:104E8000645F6176673D25752073685F6176673D75
:104E900025750A002073745F73756D3D2575207943
:104EA000645F73756D3D25752065725F73756D3D2B
:104EB00025752065725F6D61783D256868750A000B
:104EC000004B494C4C45442E20005072696E74656D
:104ED000722068616C7465642E206B696C6C282983
:104EE0002063616C6C656421004B494C4C3A202571
:104EF000640A004D31303420496E76616C6964205B
:104F0000657874727564657220004D3130352049C2
:104F10006E76616C69642065787472756465722060
:104F2000004D31303920496E76616C6964206578B6
:104F300074727564657220004D32313820496E7686
:104F4000616C696420657874727564657220004DC7
:104F500032323120496E76616C69642065787472F2
:104F60007564657220006673656E736F725F6F7132
:104F70005F6D656173737572655F73746F702C20FC
:104F8000256868752073616D706C65730A006673BF
:104F9000656E736F725F6F715F6D6561737375724C
:104FA000655F73746172740A004D36303000465389
:104FB000454E534F525F5245434F5645520066731C
:104FC000656E736F725F757064617465202D204D1E
:104FD0003630300A006673656E736F725F65727289
:104FE0005F636E74203D20300A0047312045332036
:104FF0004632303000473120452D332046323030A4
:10500000004D3730310020573A0020453A00543ADD
:10501000005A206C6976652061646A757374206F2C
:105020007574206F662072616E67652E20536574FB
:1050300074696E6720746F20302E20436C69636B37
:1050400020746F20636F6E74696E75652E005A2030
:105050006C6976652061646A757374206F7574205D
:105060006F662072616E67652E2053657474696E79
:105070006720746F20300048656174696E67206432
:10508000697361626C65642062792073616665741E
:10509000792074696D65722E00000E1315110E00D3
:1050A000000004120912040000001C1F11111F004F
:1050B000000006191803130C00040E1F041C000046
:1050C00000040A0A0A0A11110E001F1511151F000B
:1050D00000000103161C0800000000110A04110A58
:1050E000040C12120C000000002563252D313853EA
:1050F0002563002563252E3135533A257325336406
:10510000002563252E3132533A25732500457872E8
:10511000656D65207370616E206F66207468652010
:105120005A2076616C7565732100000040410000D3
:1051300000400000E442000000400000574300002F
:105140000040000057430000C4420000E442000059
:10515000C442000040410000C44200004041000041
:1051600042430000E4420000424300005743000075
:105170004243205B6F66665D00426564206C657625
:10518000656C696E67206661696C65642E20536585
:105190006E736F72206469646E74207472696767DD
:1051A00065722E20446562726973206F6E206E6F87
:1051B0007A7A6C653F2057616974696E6720666F03
:1051C000722072657365742E00526573756D696E19
:1051D00067207072696E7400537570706F7274001E
:1051E0004661696C207374617473005374617469EF
:1051F000737469637320200043616C696272617427
:10520000696F6E004175746F4C6F61642066696CE4
:10521000616D656E7400556E6C6F61642066696CBB
:10522000616D656E7400456A6563742066696C61C2
:105230006D656E74004C6F616420746F206E6F7AC0
:105240007A6C65004C6F61642066696C616D656E97
:1052500074004E6F20534420636172640050726981
:105260006E742066726F6D20534400526573756DC5
:1052700065207072696E740050617573652070727C
:10528000696E7400507265686561740054756E656E
:10529000004C6976652061646A757374205A004910
:1052A0006E666F2073637265656E0046696E697322
:1052B00068696E67206D6F76656D656E74730053F7
:1052C0006F756E642020202020205B6C6F75645DFC
:1052D00000536F756E642020202020205B6D757454
:1052E000655D00536F756E64202020205B73696CD0
:1052F000656E745D00536F756E6420202020202041
:105300005B6F6E63655D00536F756E6420202020B7
:1053100020205B6C6F75645D00437261736820646C
:1053200065742E20205B4E2F415D004372617368CF
:10533000206465742E2020205B6F6E5D00437261D7
:105340007368206465742E20205B6F66665D004D77
:105350006F6465202020205B537465616C74685D08
:10536000004D6F646520202020205B4E6F726D61C0
:105370006C5D0046696C2E2073656E736F72202021
:105380005B6F6E5D0046696C2E2073656E736F7285
:10539000205B6F66665D004368616E6765206669C5
:1053A0006C616D656E7400466C6F77005370656557
:1053B000640046616E207370656564004265640038
:1053C0004E6F7A7A6C650053657474696E6773000A
:1053D0005072696E742061626F7274656400596501
:1053E00073004E6F0053746F70207072696E74009A
:1053F00046696C6520696E636F6D706C6574652EAF
:1054000020436F6E74696E756520616E797761797E
:105410003F004D61696E004D3730322043004661D8
:10542000726D206E756D626572004D363030004DC4
:105430003234004D323320257300052E2E00436197
:105440006E6E6F7420656E74657220737562646928
:10545000723A200053442063617264206F6B006FC6
:1054600070656E526F6F74206661696C656400765A
:105470006F6C756D652E696E6974206661696C6507
:105480006400534420696E6974206661696C00573A
:10549000726974696E6720746F2066696C653A2062
:1054A0000046696C652073656C65637465640020F3
:1054B00053697A653A200046696C65206F70656EA5
:1054C00065643A20001F1F1F1F1F1F1F1F2E002E65
:1054D000004E6F772066726573682066696C653A66
:1054E00020004E6F7720646F696E672066696C6577
:1054F0003A20002220706F73002220706172656E66
:10550000743A2200535542524F5554494E45204358
:10551000414C4C207461726765743A220074727950
:10552000696E6720746F2063616C6C207375622DE7
:1055300067636F64652066696C657320776974685A
:1055400020746F6F206D616E79206C6576656C7369
:105550002E204D4158206C6576656C2069733A00A9
:10556000536F7274696E672066696C657300536F60
:105570006D652066696C65732077696C6C206E6F51
:105580007420626520736F727465642E204D61789B
:105590002E204E6F2E206F662066696C6573206921
:1055A0006E203120666F6C64657220666F722073A6
:1055B0006F7274696E67206973203130302E004637
:1055C000696C616D656E742073656E736F720053E4
:1055D0007761707065640046726F6E742F6C6566DB
:1055E000742066616E730041786973004178697355
:1055F000206C656E677468004C6F6F736520707502
:105600006C6C657900456E6473746F70206E6F7496
:105610002068697400456E6473746F70004D6F7418
:105620006F7200456E6473746F70730057697269AE
:105630006E67206572726F7200426564202F204889
:105640006561746572004E6F7420636F6E6E656382
:10565000746564004865617465722F546865726D85
:105660006973746F7200506C65617365206368655F
:10567000636B203A0053656C6674657374206572C1
:10568000726F7220210046696C616D656E742073C3
:10569000656E736F723A005072696E742066616E47
:1056A0003A0045787472756465722066616E3A00DE
:1056B00053656C6674657374206661696C656420FB
:1056C0002000416C6C20636F72726563742020202F
:1056D00020202000436865636B696E672073656EE8
:1056E000736F72732000436865636B696E67206235
:1056F0006564202020202000436865636B696E6725
:10570000205A2061786973202000436865636B69C3
:105710006E672059206178697320200043686563B3
:105720006B696E6720582061786973202000436898
:1057300065636B696E6720686F74656E6420200016
:10574000436865636B696E6720656E6473746F7020
:1057500073004572726F72202D20737461746963D7
:10576000206D656D6F727920686173206265656E6A
:10577000206F7665727772697474656E004361722A
:10578000642072656D6F76656400436172642069A0
:105790006E736572746564002D2D2D2D2D2D2D2DAC
:1057A0002D2D2D2D2D2D2D2D2D2D2D2D0043616CCD
:1057B0006962726174696E6720686F6D65000000D0
:1057C000000000110A04505255534133444657001B
:1057D0002079303D25640A002078303D25640A0098
:1057E0004F4B0A004552524F522061643D25640AD6
:1057F000002020207A303D25640A00207A303D25A3
:10580000640A002079303D25640A002078303D2567
:10581000640A0078797A63616C5F66696E645F70B0
:105820006F696E745F63656E746572320A00332E41
:10583000352E30007263006265746100616C7068BF
:1058400061006465760078797A63616C5F73706972
:1058500072616C322063783D25642063793D256454
:10586000207A303D256420647A3D2564207261648D
:105870006975733D25642061643D25640A00010259
:105880001020200808102040102040800201020152
:10589000080402010102040810204080804020100A
:1058A0000804020180040201804020100804020163
:1058B00008040201010204081020408001020408CB
:1058C0001020408010080408801020400440801000
:1058D0002040048000002200250028002B002E001C
:1058E0003100340002010000050108010B0105052B
:1058F0000505070508080808020202020A0A080846
:105900000404040401010101010101010303030373
:1059100003030303040707070C0C0C0C0C0C0C0C02
:105920000202020206060606060606060B0B0B0B13
:105930000B0B0B0B07070A0A0A0A0A0A05050504DE
:105940000404080802746D63323133305F676F748A
:105950006F5F7374657020256420256420256420A2
:105960002564200A002E006F70656E206661696CE8
:1059700065642C2046696C653A200020746F6F20A6
:105980006C6F6E6720657874727573696F6E2070C6
:10599000726576656E7465640020636F6C64206563
:1059A0007874727573696F6E2070726576656E7447
:1059B0006564000000A0400000A0400000004025F9
:1059C000336420737465703D253264206D73636E9B
:1059D000743D2534640A0000007F43008058439AD8
:1059E000D95143FFFFFF46696C616D656E74206F8E
:1059F0007574206F662072616E6765202564200AC9
:105A00000067636F64655F4D373031206265676999
:105A10006E0A0057616974696E6720666F72206E46
:105A20006F7A7A6C6520616E642062656420636FB2
:105A30006F6C696E670053656C66207465737420C3
:105A40004F4B0053656C66207465737420737461EA
:105A500072742020006C63645F73656C66636865B4
:105A6000636B5F617869732025642C2025640A00CC
:105A70004D3834004731205A3135204631303030EE
:105A8000004732382057002563204158495320539E
:105A900047313D25640A0041786973206C656E6763
:105AA000746820646966666572656E63653A252E62
:105AB00033660A004D6561737572656420617869AB
:105AC00073206C656E6774683A252E33660A004D44
:105AD0003234004D3233202573006175746F2569AF
